{
  "_format": "hh-sol-artifact-1",
  "contractName": "WavePortal",
  "sourceName": "contracts/Wave_contract.sol",
  "abi": [
    {
      "inputs": [],
      "stateMutability": "payable",
      "type": "constructor"
    },
    {
      "anonymous": false,
      "inputs": [
        {
          "indexed": true,
          "internalType": "address",
          "name": "from",
          "type": "address"
        },
        {
          "indexed": false,
          "internalType": "uint256",
          "name": "timestamp",
          "type": "uint256"
        },
        {
          "indexed": false,
          "internalType": "string",
          "name": "message",
          "type": "string"
        }
      ],
      "name": "NewWave",
      "type": "event"
    },
    {
      "inputs": [],
      "name": "getAllWaves",
      "outputs": [
        {
          "components": [
            {
              "internalType": "address",
              "name": "waver",
              "type": "address"
            },
            {
              "internalType": "string",
              "name": "message",
              "type": "string"
            },
            {
              "internalType": "uint256",
              "name": "timestamp",
              "type": "uint256"
            }
          ],
          "internalType": "struct WavePortal.Wave[]",
          "name": "",
          "type": "tuple[]"
        }
      ],
      "stateMutability": "view",
      "type": "function"
    },
    {
      "inputs": [],
      "name": "getTotalWaves",
      "outputs": [
        {
          "internalType": "uint256",
          "name": "",
          "type": "uint256"
        }
      ],
      "stateMutability": "view",
      "type": "function"
    },
    {
      "inputs": [
        {
          "internalType": "address",
          "name": "",
          "type": "address"
        }
      ],
      "name": "lastWavedAt",
      "outputs": [
        {
          "internalType": "uint256",
          "name": "",
          "type": "uint256"
        }
      ],
      "stateMutability": "view",
      "type": "function"
    },
    {
      "inputs": [],
      "name": "totalWaves",
      "outputs": [
        {
          "internalType": "uint256",
          "name": "",
          "type": "uint256"
        }
      ],
      "stateMutability": "view",
      "type": "function"
    },
    {
      "inputs": [
        {
          "internalType": "string",
          "name": "_message",
          "type": "string"
        }
      ],
      "name": "wave",
      "outputs": [],
      "stateMutability": "nonpayable",
      "type": "function"
    }
  ],
  "bytecode": "0x6080604052620000336040518060600160405280602f81526020016200174a602f91396200005b60201b620006b11760201c565b6064444262000043919062000160565b6200004f9190620001ca565b600181905550620002c0565b620000fb816040516024016200007291906200029c565b6040516020818303038152906040527f41304fac000000000000000000000000000000000000000000000000000000007bffffffffffffffffffffffffffffffffffffffffffffffffffffffff19166020820180517bffffffffffffffffffffffffffffffffffffffffffffffffffffffff8381831617835250505050620000fe60201b60201c565b50565b60008151905060006a636f6e736f6c652e6c6f679050602083016000808483855afa5050505050565b6000819050919050565b7f4e487b7100000000000000000000000000000000000000000000000000000000600052601160045260246000fd5b60006200016d8262000127565b91506200017a8362000127565b925082820190508082111562000195576200019462000131565b5b92915050565b7f4e487b7100000000000000000000000000000000000000000000000000000000600052601260045260246000fd5b6000620001d78262000127565b9150620001e48362000127565b925082620001f757620001f66200019b565b5b828206905092915050565b600081519050919050565b600082825260208201905092915050565b60005b838110156200023e57808201518184015260208101905062000221565b60008484015250505050565b6000601f19601f8301169050919050565b6000620002688262000202565b6200027481856200020d565b9350620002868185602086016200021e565b62000291816200024a565b840191505092915050565b60006020820190508181036000830152620002b881846200025b565b905092915050565b61147a80620002d06000396000f3fe608060405234801561001057600080fd5b50600436106100575760003560e01c8063291bcab31461005c578063449d46c01461007a5780639a2cdc0814610096578063a42a4663146100b4578063bd43a908146100e4575b600080fd5b610064610102565b6040516100719190610963565b60405180910390f35b610094600480360381019061008f9190610ad8565b610108565b005b61009e6104fd565b6040516100ab9190610963565b60405180910390f35b6100ce60048036038101906100c99190610b7f565b610548565b6040516100db9190610963565b60405180910390f35b6100ec610560565b6040516100f99190610d5b565b60405180910390f35b60005481565b42601e600360003373ffffffffffffffffffffffffffffffffffffffff1673ffffffffffffffffffffffffffffffffffffffff168152602001908152602001600020546101559190610dac565b10610195576040517f08c379a000000000000000000000000000000000000000000000000000000000815260040161018c90610e3d565b60405180910390fd5b42600360003373ffffffffffffffffffffffffffffffffffffffff1673ffffffffffffffffffffffffffffffffffffffff1681526020019081526020016000208190555060016000808282546101eb9190610dac565b925050819055506102326040518060400160405280601681526020017f257320776176656420772f206d65737361676520257300000000000000000000815250338361074a565b600260405180606001604052803373ffffffffffffffffffffffffffffffffffffffff16815260200183815260200142815250908060018154018082558091505060019003906000526020600020906003020160009091909190915060008201518160000160006101000a81548173ffffffffffffffffffffffffffffffffffffffff021916908373ffffffffffffffffffffffffffffffffffffffff16021790555060208201518160010190816102ea9190611069565b50604082015181600201555050606460015442446103089190610dac565b6103129190610dac565b61031c919061116a565b6001819055506103636040518060400160405280601781526020017f52616e646f6d206e756d2067656e6572617465642025640000000000000000008152506001546107e9565b603260015410156104aa576103ad6040518060400160405280600781526020017f257320776f6e210000000000000000000000000000000000000000000000000081525033610885565b6000655af3107a40009050478111156103fb576040517f08c379a00000000000000000000000000000000000000000000000000000000081526004016103f29061120d565b60405180910390fd5b60003373ffffffffffffffffffffffffffffffffffffffff16826040516104219061125e565b60006040518083038185875af1925050503d806000811461045e576040519150601f19603f3d011682016040523d82523d6000602084013e610463565b606091505b50509050806104a7576040517f08c379a000000000000000000000000000000000000000000000000000000000815260040161049e906112e5565b60405180910390fd5b50505b3373ffffffffffffffffffffffffffffffffffffffff167f5f7e16dc676677766a70e9c5628aa6c54ddb8b6e5188e2ae1e1f17f1ffbea71642836040516104f292919061133e565b60405180910390a250565b60006105406040518060400160405280601781526020017f5765206861766520256420746f74616c207761766573210000000000000000008152506000546107e9565b600054905090565b60036020528060005260406000206000915090505481565b60606002805480602002602001604051908101604052809291908181526020016000905b828210156106a857838290600052602060002090600302016040518060600160405290816000820160009054906101000a900473ffffffffffffffffffffffffffffffffffffffff1673ffffffffffffffffffffffffffffffffffffffff1673ffffffffffffffffffffffffffffffffffffffff16815260200160018201805461060d90610e8c565b80601f016020809104026020016040519081016040528092919081815260200182805461063990610e8c565b80156106865780601f1061065b57610100808354040283529160200191610686565b820191906000526020600020905b81548152906001019060200180831161066957829003601f168201915b5050505050815260200160028201548152505081526020019060010190610584565b50505050905090565b610747816040516024016106c5919061136e565b6040516020818303038152906040527f41304fac000000000000000000000000000000000000000000000000000000007bffffffffffffffffffffffffffffffffffffffffffffffffffffffff19166020820180517bffffffffffffffffffffffffffffffffffffffffffffffffffffffff8381831617835250505050610921565b50565b6107e48383836040516024016107629392919061139f565b6040516020818303038152906040527fe0e9ad4f000000000000000000000000000000000000000000000000000000007bffffffffffffffffffffffffffffffffffffffffffffffffffffffff19166020820180517bffffffffffffffffffffffffffffffffffffffffffffffffffffffff8381831617835250505050610921565b505050565b61088182826040516024016107ff9291906113e4565b6040516020818303038152906040527fb60e72cc000000000000000000000000000000000000000000000000000000007bffffffffffffffffffffffffffffffffffffffffffffffffffffffff19166020820180517bffffffffffffffffffffffffffffffffffffffffffffffffffffffff8381831617835250505050610921565b5050565b61091d828260405160240161089b929190611414565b6040516020818303038152906040527f319af333000000000000000000000000000000000000000000000000000000007bffffffffffffffffffffffffffffffffffffffffffffffffffffffff19166020820180517bffffffffffffffffffffffffffffffffffffffffffffffffffffffff8381831617835250505050610921565b5050565b60008151905060006a636f6e736f6c652e6c6f679050602083016000808483855afa5050505050565b6000819050919050565b61095d8161094a565b82525050565b60006020820190506109786000830184610954565b92915050565b6000604051905090565b600080fd5b600080fd5b600080fd5b600080fd5b6000601f19601f8301169050919050565b7f4e487b7100000000000000000000000000000000000000000000000000000000600052604160045260246000fd5b6109e58261099c565b810181811067ffffffffffffffff82111715610a0457610a036109ad565b5b80604052505050565b6000610a1761097e565b9050610a2382826109dc565b919050565b600067ffffffffffffffff821115610a4357610a426109ad565b5b610a4c8261099c565b9050602081019050919050565b82818337600083830152505050565b6000610a7b610a7684610a28565b610a0d565b905082815260208101848484011115610a9757610a96610997565b5b610aa2848285610a59565b509392505050565b600082601f830112610abf57610abe610992565b5b8135610acf848260208601610a68565b91505092915050565b600060208284031215610aee57610aed610988565b5b600082013567ffffffffffffffff811115610b0c57610b0b61098d565b5b610b1884828501610aaa565b91505092915050565b600073ffffffffffffffffffffffffffffffffffffffff82169050919050565b6000610b4c82610b21565b9050919050565b610b5c81610b41565b8114610b6757600080fd5b50565b600081359050610b7981610b53565b92915050565b600060208284031215610b9557610b94610988565b5b6000610ba384828501610b6a565b91505092915050565b600081519050919050565b600082825260208201905092915050565b6000819050602082019050919050565b610be181610b41565b82525050565b600081519050919050565b600082825260208201905092915050565b60005b83811015610c21578082015181840152602081019050610c06565b60008484015250505050565b6000610c3882610be7565b610c428185610bf2565b9350610c52818560208601610c03565b610c5b8161099c565b840191505092915050565b610c6f8161094a565b82525050565b6000606083016000830151610c8d6000860182610bd8565b5060208301518482036020860152610ca58282610c2d565b9150506040830151610cba6040860182610c66565b508091505092915050565b6000610cd18383610c75565b905092915050565b6000602082019050919050565b6000610cf182610bac565b610cfb8185610bb7565b935083602082028501610d0d85610bc8565b8060005b85811015610d495784840389528151610d2a8582610cc5565b9450610d3583610cd9565b925060208a01995050600181019050610d11565b50829750879550505050505092915050565b60006020820190508181036000830152610d758184610ce6565b905092915050565b7f4e487b7100000000000000000000000000000000000000000000000000000000600052601160045260246000fd5b6000610db78261094a565b9150610dc28361094a565b9250828201905080821115610dda57610dd9610d7d565b5b92915050565b600082825260208201905092915050565b7f77616974203330207365636f6e64730000000000000000000000000000000000600082015250565b6000610e27600f83610de0565b9150610e3282610df1565b602082019050919050565b60006020820190508181036000830152610e5681610e1a565b9050919050565b7f4e487b7100000000000000000000000000000000000000000000000000000000600052602260045260246000fd5b60006002820490506001821680610ea457607f821691505b602082108103610eb757610eb6610e5d565b5b50919050565b60008190508160005260206000209050919050565b60006020601f8301049050919050565b600082821b905092915050565b600060088302610f1f7fffffffffffffffffffffffffffffffffffffffffffffffffffffffffffffffff82610ee2565b610f298683610ee2565b95508019841693508086168417925050509392505050565b6000819050919050565b6000610f66610f61610f5c8461094a565b610f41565b61094a565b9050919050565b6000819050919050565b610f8083610f4b565b610f94610f8c82610f6d565b848454610eef565b825550505050565b600090565b610fa9610f9c565b610fb4818484610f77565b505050565b5b81811015610fd857610fcd600082610fa1565b600181019050610fba565b5050565b601f82111561101d57610fee81610ebd565b610ff784610ed2565b81016020851015611006578190505b61101a61101285610ed2565b830182610fb9565b50505b505050565b600082821c905092915050565b600061104060001984600802611022565b1980831691505092915050565b6000611059838361102f565b9150826002028217905092915050565b61107282610be7565b67ffffffffffffffff81111561108b5761108a6109ad565b5b6110958254610e8c565b6110a0828285610fdc565b600060209050601f8311600181146110d357600084156110c1578287015190505b6110cb858261104d565b865550611133565b601f1984166110e186610ebd565b60005b82811015611109578489015182556001820191506020850194506020810190506110e4565b868310156111265784890151611122601f89168261102f565b8355505b6001600288020188555050505b505050505050565b7f4e487b7100000000000000000000000000000000000000000000000000000000600052601260045260246000fd5b60006111758261094a565b91506111808361094a565b9250826111905761118f61113b565b5b828206905092915050565b7f547279696e6720746f207769746864726177206d6f7265206d6f6e657920667260008201527f6f6d20636f6e74726163742e0000000000000000000000000000000000000000602082015250565b60006111f7602c83610de0565b91506112028261119b565b604082019050919050565b60006020820190508181036000830152611226816111ea565b9050919050565b600081905092915050565b50565b600061124860008361122d565b915061125382611238565b600082019050919050565b60006112698261123b565b9150819050919050565b7f4661696c656420746f207769746864726177206d6f6e65792066726f6d20636f60008201527f6e74726163742e00000000000000000000000000000000000000000000000000602082015250565b60006112cf602783610de0565b91506112da82611273565b604082019050919050565b600060208201905081810360008301526112fe816112c2565b9050919050565b600061131082610be7565b61131a8185610de0565b935061132a818560208601610c03565b6113338161099c565b840191505092915050565b60006040820190506113536000830185610954565b81810360208301526113658184611305565b90509392505050565b600060208201905081810360008301526113888184611305565b905092915050565b61139981610b41565b82525050565b600060608201905081810360008301526113b98186611305565b90506113c86020830185611390565b81810360408301526113da8184611305565b9050949350505050565b600060408201905081810360008301526113fe8185611305565b905061140d6020830184610954565b9392505050565b6000604082019050818103600083015261142e8185611305565b905061143d6020830184611390565b939250505056fea2646970667358221220dd5f94e9d6bb5543f69e3c250e6e4861bf4a8ee52c919afc1c8c6f767e0267ae64736f6c6343000811003348657920746865726521204920616d206120636f6e747261637420616e64204920616d207665727920736d61727421",
  "linkReferences": {},
  "deployedLinkReferences": {}
}